{
  "_format": "hh-sol-artifact-1",
  "contractName": "VoterRegistration",
  "sourceName": "contracts/VoterRegistration.sol",
  "abi": [
    {
      "inputs": [],
      "stateMutability": "nonpayable",
      "type": "constructor"
    },
    {
      "anonymous": false,
      "inputs": [
        {
          "indexed": false,
          "internalType": "address",
          "name": "voterAddress",
          "type": "address"
        }
      ],
      "name": "Voted",
      "type": "event"
    },
    {
      "anonymous": false,
      "inputs": [
        {
          "indexed": false,
          "internalType": "address",
          "name": "voterAddress",
          "type": "address"
        },
        {
          "indexed": false,
          "internalType": "string",
          "name": "name",
          "type": "string"
        }
      ],
      "name": "VoterRegistered",
      "type": "event"
    },
    {
      "inputs": [],
      "name": "admin",
      "outputs": [
        {
          "internalType": "address",
          "name": "",
          "type": "address"
        }
      ],
      "stateMutability": "view",
      "type": "function"
    },
    {
      "inputs": [],
      "name": "getAllVoters",
      "outputs": [
        {
          "internalType": "address[]",
          "name": "",
          "type": "address[]"
        }
      ],
      "stateMutability": "view",
      "type": "function"
    },
    {
      "inputs": [
        {
          "internalType": "address",
          "name": "_voter",
          "type": "address"
        }
      ],
      "name": "getVoter",
      "outputs": [
        {
          "components": [
            {
              "internalType": "string",
              "name": "name",
              "type": "string"
            },
            {
              "internalType": "uint256",
              "name": "age",
              "type": "uint256"
            },
            {
              "internalType": "string",
              "name": "gender",
              "type": "string"
            },
            {
              "internalType": "address",
              "name": "voterAddress",
              "type": "address"
            },
            {
              "internalType": "bool",
              "name": "isRegistered",
              "type": "bool"
            },
            {
              "internalType": "bool",
              "name": "hasVoted",
              "type": "bool"
            }
          ],
          "internalType": "struct VoterRegistration.Voter",
          "name": "",
          "type": "tuple"
        }
      ],
      "stateMutability": "view",
      "type": "function"
    },
    {
      "inputs": [
        {
          "internalType": "address",
          "name": "_voter",
          "type": "address"
        }
      ],
      "name": "isRegistered",
      "outputs": [
        {
          "internalType": "bool",
          "name": "",
          "type": "bool"
        }
      ],
      "stateMutability": "view",
      "type": "function"
    },
    {
      "inputs": [
        {
          "internalType": "address",
          "name": "_voter",
          "type": "address"
        }
      ],
      "name": "markVoted",
      "outputs": [],
      "stateMutability": "nonpayable",
      "type": "function"
    },
    {
      "inputs": [],
      "name": "minimumAge",
      "outputs": [
        {
          "internalType": "uint256",
          "name": "",
          "type": "uint256"
        }
      ],
      "stateMutability": "view",
      "type": "function"
    },
    {
      "inputs": [
        {
          "internalType": "address",
          "name": "_voter",
          "type": "address"
        },
        {
          "internalType": "string",
          "name": "_name",
          "type": "string"
        },
        {
          "internalType": "uint256",
          "name": "_age",
          "type": "uint256"
        },
        {
          "internalType": "string",
          "name": "_gender",
          "type": "string"
        }
      ],
      "name": "registerVoterFor",
      "outputs": [],
      "stateMutability": "nonpayable",
      "type": "function"
    },
    {
      "inputs": [
        {
          "internalType": "uint256",
          "name": "",
          "type": "uint256"
        }
      ],
      "name": "voterAddresses",
      "outputs": [
        {
          "internalType": "address",
          "name": "",
          "type": "address"
        }
      ],
      "stateMutability": "view",
      "type": "function"
    },
    {
      "inputs": [
        {
          "internalType": "address",
          "name": "",
          "type": "address"
        }
      ],
      "name": "voters",
      "outputs": [
        {
          "internalType": "string",
          "name": "name",
          "type": "string"
        },
        {
          "internalType": "uint256",
          "name": "age",
          "type": "uint256"
        },
        {
          "internalType": "string",
          "name": "gender",
          "type": "string"
        },
        {
          "internalType": "address",
          "name": "voterAddress",
          "type": "address"
        },
        {
          "internalType": "bool",
          "name": "isRegistered",
          "type": "bool"
        },
        {
          "internalType": "bool",
          "name": "hasVoted",
          "type": "bool"
        }
      ],
      "stateMutability": "view",
      "type": "function"
    }
  ],
  "bytecode": "0x6080604052601260015534801561001557600080fd5b50336000806101000a81548173ffffffffffffffffffffffffffffffffffffffff021916908373ffffffffffffffffffffffffffffffffffffffff160217905550611669806100656000396000f3fe608060405234801561001057600080fd5b50600436106100935760003560e01c8063c30121bc11610066578063c30121bc14610125578063c3c5a54714610141578063d4f50f9814610171578063dd0e2373146101a1578063f851a440146101d157610093565b806335bbe70e14610098578063a395e16d146100b6578063a3ec138d146100d4578063a8fd0cfa14610109575b600080fd5b6100a06101ef565b6040516100ad919061128a565b60405180910390f35b6100be61027d565b6040516100cb91906113f8565b60405180910390f35b6100ee60048036038101906100e99190610dfc565b610283565b604051610100969594939291906112c7565b60405180910390f35b610123600480360381019061011e9190610dfc565b610409565b005b61013f600480360381019061013a9190610e25565b61064b565b005b61015b60048036038101906101569190610dfc565b6109a8565b60405161016891906112ac565b60405180910390f35b61018b60048036038101906101869190610dfc565b610a01565b60405161019891906113d6565b60405180910390f35b6101bb60048036038101906101b69190610eb8565b610c14565b6040516101c8919061123f565b60405180910390f35b6101d9610c53565b6040516101e6919061123f565b60405180910390f35b6060600380548060200260200160405190810160405280929190818152602001828054801561027357602002820191906000526020600020905b8160009054906101000a900473ffffffffffffffffffffffffffffffffffffffff1673ffffffffffffffffffffffffffffffffffffffff1681526020019060010190808311610229575b5050505050905090565b60015481565b60026020528060005260406000206000915090508060000180546102a690611564565b80601f01602080910402602001604051908101604052809291908181526020018280546102d290611564565b801561031f5780601f106102f45761010080835404028352916020019161031f565b820191906000526020600020905b81548152906001019060200180831161030257829003601f168201915b50505050509080600101549080600201805461033a90611564565b80601f016020809104026020016040519081016040528092919081815260200182805461036690611564565b80156103b35780601f10610388576101008083540402835291602001916103b3565b820191906000526020600020905b81548152906001019060200180831161039657829003601f168201915b5050505050908060030160009054906101000a900473ffffffffffffffffffffffffffffffffffffffff16908060030160149054906101000a900460ff16908060030160159054906101000a900460ff16905086565b60008054906101000a900473ffffffffffffffffffffffffffffffffffffffff1673ffffffffffffffffffffffffffffffffffffffff163373ffffffffffffffffffffffffffffffffffffffff1614610497576040517f08c379a000000000000000000000000000000000000000000000000000000000815260040161048e906113b6565b60405180910390fd5b600260008273ffffffffffffffffffffffffffffffffffffffff1673ffffffffffffffffffffffffffffffffffffffff16815260200190815260200160002060030160149054906101000a900460ff16610526576040517f08c379a000000000000000000000000000000000000000000000000000000000815260040161051d90611376565b60405180910390fd5b600260008273ffffffffffffffffffffffffffffffffffffffff1673ffffffffffffffffffffffffffffffffffffffff16815260200190815260200160002060030160159054906101000a900460ff16156105b6576040517f08c379a00000000000000000000000000000000000000000000000000000000081526004016105ad90611336565b60405180910390fd5b6001600260008373ffffffffffffffffffffffffffffffffffffffff1673ffffffffffffffffffffffffffffffffffffffff16815260200190815260200160002060030160156101000a81548160ff0219169083151502179055507f16a9aa39af49f169911e977347975198c503525f7240d6892a626f0227642fce81604051610640919061123f565b60405180910390a150565b60008054906101000a900473ffffffffffffffffffffffffffffffffffffffff1673ffffffffffffffffffffffffffffffffffffffff163373ffffffffffffffffffffffffffffffffffffffff16146106d9576040517f08c379a00000000000000000000000000000000000000000000000000000000081526004016106d0906113b6565b60405180910390fd5b8160015481101561071f576040517f08c379a000000000000000000000000000000000000000000000000000000000815260040161071690611396565b60405180910390fd5b600260008673ffffffffffffffffffffffffffffffffffffffff1673ffffffffffffffffffffffffffffffffffffffff16815260200190815260200160002060030160149054906101000a900460ff16156107af576040517f08c379a00000000000000000000000000000000000000000000000000000000081526004016107a690611356565b60405180910390fd5b6040518060c001604052808581526020018481526020018381526020018673ffffffffffffffffffffffffffffffffffffffff16815260200160011515815260200160001515815250600260008773ffffffffffffffffffffffffffffffffffffffff1673ffffffffffffffffffffffffffffffffffffffff1681526020019081526020016000206000820151816000019080519060200190610853929190610c77565b5060208201518160010155604082015181600201908051906020019061087a929190610c77565b5060608201518160030160006101000a81548173ffffffffffffffffffffffffffffffffffffffff021916908373ffffffffffffffffffffffffffffffffffffffff16021790555060808201518160030160146101000a81548160ff02191690831515021790555060a08201518160030160156101000a81548160ff0219169083151502179055509050506003859080600181540180825580915050600190039060005260206000200160009091909190916101000a81548173ffffffffffffffffffffffffffffffffffffffff021916908373ffffffffffffffffffffffffffffffffffffffff1602179055507fffeb7702be7dcd8fee170d954b70afb9a7c78f7f5cff232d037e7b9d8243356a858560405161099992919061125a565b60405180910390a15050505050565b6000600260008373ffffffffffffffffffffffffffffffffffffffff1673ffffffffffffffffffffffffffffffffffffffff16815260200190815260200160002060030160149054906101000a900460ff169050919050565b610a09610cfd565b600260008373ffffffffffffffffffffffffffffffffffffffff1673ffffffffffffffffffffffffffffffffffffffff1681526020019081526020016000206040518060c0016040529081600082018054610a6390611564565b80601f0160208091040260200160405190810160405280929190818152602001828054610a8f90611564565b8015610adc5780601f10610ab157610100808354040283529160200191610adc565b820191906000526020600020905b815481529060010190602001808311610abf57829003601f168201915b5050505050815260200160018201548152602001600282018054610aff90611564565b80601f0160208091040260200160405190810160405280929190818152602001828054610b2b90611564565b8015610b785780601f10610b4d57610100808354040283529160200191610b78565b820191906000526020600020905b815481529060010190602001808311610b5b57829003601f168201915b505050505081526020016003820160009054906101000a900473ffffffffffffffffffffffffffffffffffffffff1673ffffffffffffffffffffffffffffffffffffffff1673ffffffffffffffffffffffffffffffffffffffff1681526020016003820160149054906101000a900460ff161515151581526020016003820160159054906101000a900460ff1615151515815250509050919050565b60038181548110610c2457600080fd5b906000526020600020016000915054906101000a900473ffffffffffffffffffffffffffffffffffffffff1681565b60008054906101000a900473ffffffffffffffffffffffffffffffffffffffff1681565b828054610c8390611564565b90600052602060002090601f016020900481019282610ca55760008555610cec565b82601f10610cbe57805160ff1916838001178555610cec565b82800160010185558215610cec579182015b82811115610ceb578251825591602001919060010190610cd0565b5b509050610cf99190610d4d565b5090565b6040518060c00160405280606081526020016000815260200160608152602001600073ffffffffffffffffffffffffffffffffffffffff1681526020016000151581526020016000151581525090565b5b80821115610d66576000816000905550600101610d4e565b5090565b6000610d7d610d7884611444565b611413565b905082815260208101848484011115610d9557600080fd5b610da0848285611522565b509392505050565b600081359050610db781611605565b92915050565b600082601f830112610dce57600080fd5b8135610dde848260208601610d6a565b91505092915050565b600081359050610df68161161c565b92915050565b600060208284031215610e0e57600080fd5b6000610e1c84828501610da8565b91505092915050565b60008060008060808587031215610e3b57600080fd5b6000610e4987828801610da8565b945050602085013567ffffffffffffffff811115610e6657600080fd5b610e7287828801610dbd565b9350506040610e8387828801610de7565b925050606085013567ffffffffffffffff811115610ea057600080fd5b610eac87828801610dbd565b91505092959194509250565b600060208284031215610eca57600080fd5b6000610ed884828501610de7565b91505092915050565b6000610eed8383610ef9565b60208301905092915050565b610f02816114da565b82525050565b610f11816114da565b82525050565b6000610f2282611484565b610f2c81856114a7565b9350610f3783611474565b8060005b83811015610f68578151610f4f8882610ee1565b9750610f5a8361149a565b925050600181019050610f3b565b5085935050505092915050565b610f7e816114ec565b82525050565b610f8d816114ec565b82525050565b6000610f9e8261148f565b610fa881856114b8565b9350610fb8818560208601611531565b610fc1816115f4565b840191505092915050565b6000610fd78261148f565b610fe181856114c9565b9350610ff1818560208601611531565b610ffa816115f4565b840191505092915050565b6000611012600d836114c9565b91507f416c726561647920766f746564000000000000000000000000000000000000006000830152602082019050919050565b60006110526018836114c9565b91507f566f74657220616c7265616479207265676973746572656400000000000000006000830152602082019050919050565b60006110926014836114c9565b91507f566f746572206e6f7420726567697374657265640000000000000000000000006000830152602082019050919050565b60006110d26029836114c9565b91507f596f75206d757374206265206174206c65617374203138207965617273206f6c60008301527f6420746f20766f746500000000000000000000000000000000000000000000006020830152604082019050919050565b60006111386022836114c9565b91507f4f6e6c792061646d696e2063616e20706572666f726d2074686973206163746960008301527f6f6e0000000000000000000000000000000000000000000000000000000000006020830152604082019050919050565b600060c08301600083015184820360008601526111ae8282610f93565b91505060208301516111c36020860182611221565b50604083015184820360408601526111db8282610f93565b91505060608301516111f06060860182610ef9565b5060808301516112036080860182610f75565b5060a083015161121660a0860182610f75565b508091505092915050565b61122a81611518565b82525050565b61123981611518565b82525050565b60006020820190506112546000830184610f08565b92915050565b600060408201905061126f6000830185610f08565b81810360208301526112818184610fcc565b90509392505050565b600060208201905081810360008301526112a48184610f17565b905092915050565b60006020820190506112c16000830184610f84565b92915050565b600060c08201905081810360008301526112e18189610fcc565b90506112f06020830188611230565b81810360408301526113028187610fcc565b90506113116060830186610f08565b61131e6080830185610f84565b61132b60a0830184610f84565b979650505050505050565b6000602082019050818103600083015261134f81611005565b9050919050565b6000602082019050818103600083015261136f81611045565b9050919050565b6000602082019050818103600083015261138f81611085565b9050919050565b600060208201905081810360008301526113af816110c5565b9050919050565b600060208201905081810360008301526113cf8161112b565b9050919050565b600060208201905081810360008301526113f08184611191565b905092915050565b600060208201905061140d6000830184611230565b92915050565b6000604051905081810181811067ffffffffffffffff8211171561143a576114396115c5565b5b8060405250919050565b600067ffffffffffffffff82111561145f5761145e6115c5565b5b601f19601f8301169050602081019050919050565b6000819050602082019050919050565b600081519050919050565b600081519050919050565b6000602082019050919050565b600082825260208201905092915050565b600082825260208201905092915050565b600082825260208201905092915050565b60006114e5826114f8565b9050919050565b60008115159050919050565b600073ffffffffffffffffffffffffffffffffffffffff82169050919050565b6000819050919050565b82818337600083830152505050565b60005b8381101561154f578082015181840152602081019050611534565b8381111561155e576000848401525b50505050565b6000600282049050600182168061157c57607f821691505b602082108114156115905761158f611596565b5b50919050565b7f4e487b7100000000000000000000000000000000000000000000000000000000600052602260045260246000fd5b7f4e487b7100000000000000000000000000000000000000000000000000000000600052604160045260246000fd5b6000601f19601f8301169050919050565b61160e816114da565b811461161957600080fd5b50565b61162581611518565b811461163057600080fd5b5056fea264697066735822122001823a22920582f3f42d412b1fee153b1cf1de8d263c7255027a6481b37e8fad64736f6c63430008000033",
  "linkReferences": {},
  "deployedLinkReferences": {}
}